{
  "transactions": [
    {
      "hash": "0xb26183e2d29cd30d35719468b8e16d97d83987b0bc8df65eecfb67e712a1a7de",
      "transactionType": "CREATE",
      "contractName": "AllowanceBasedMinter_AB",
      "contractAddress": "0x37ba3c65a0f9884e02c6e8f9998683B3EA525773",
      "function": null,
      "arguments": [
        "0x533D79A2669A22BAfeCdf1696aD6E738E4A2e07b",
        "0xfed74f78700bB468e824b6BfE4A2ED305a9D86ba",
        "0xfed74f78700bB468e824b6BfE4A2ED305a9D86ba"
      ],
      "rpc": "https://eth-goerli.alchemyapi.io/v2/zX14dLXhTQqeK4LG2pNUsk7Gcet8iPXJ",
      "transaction": {
        "type": "0x02",
        "from": "0x425944afe9cff9cb962cd2edfac25149ecbe2ef5",
        "gas": "0x168415",
        "value": "0x0",
        "data": "0x60806040523480156200001157600080fd5b5060405162001321380380620013218339810160408190526200003491620000f1565b6200003f3362000082565b600380546001600160a01b039485166001600160a01b0319918216179091556007805493851693821693909317909255600880549190931691161790556200013b565b600280546001600160a01b038381166001600160a01b0319831681179093556040519116919082907f8be0079c531659141344cd1fd0a4f28419497f9722a3daafe3b4186f6b6457e090600090a35050565b80516001600160a01b0381168114620000ec57600080fd5b919050565b6000806000606084860312156200010757600080fd5b6200011284620000d4565b92506200012260208501620000d4565b91506200013260408501620000d4565b90509250925092565b6111d6806200014b6000396000f3fe60806040526004361061014b5760003560e01c8063890621da116100b6578063d176cfe71161006f578063d176cfe7146103e1578063df207e8b146103f7578063e942820d14610417578063e9d1e8ac14610437578063f2fde38b1461048d578063feff1999146104ad57600080fd5b8063890621da1461031f5780638da5cb5b1461034d57806391b7f5ed1461036b57806395bdc74a1461038b578063a035b1fe146103ab578063aee9f8f1146103c157600080fd5b806364a6cc8f1161010857806364a6cc8f1461022a5780636d6afa1e1461024a578063715018a61461028257806379624a521461029757806379f2958f146102e15780638838b5c31461030157600080fd5b8063195e8708146101505780632073447d1461019557806324ff308d146101b75780632e1a7d4d146101d75780633331d704146101f75780635c0696b414610217575b600080fd5b34801561015c57600080fd5b5061018061016b366004610f12565b60006020819052908152604090205460ff1681565b60405190151581526020015b60405180910390f35b3480156101a157600080fd5b506101b56101b0366004610f40565b6104cd565b005b3480156101c357600080fd5b506101b56101d2366004610f40565b6104f6565b3480156101e357600080fd5b506101b56101f2366004610f12565b610520565b34801561020357600080fd5b506101b5610212366004610f64565b6105b1565b6101b5610225366004610f9c565b6105cb565b34801561023657600080fd5b506101b5610245366004610f12565b61079c565b34801561025657600080fd5b5060085461026a906001600160a01b031681565b6040516001600160a01b03909116815260200161018c565b34801561028e57600080fd5b506101b56107a9565b3480156102a357600080fd5b506102cc6102b2366004610f12565b600090815260046020526040902080546001909101549091565b6040805192835260208301919091520161018c565b3480156102ed57600080fd5b506101b56102fc366004611069565b6107bd565b34801561030d57600080fd5b506001546001600160a01b031661026a565b34801561032b57600080fd5b5061033f61033a366004610f9c565b61095f565b60405190815260200161018c565b34801561035957600080fd5b506002546001600160a01b031661026a565b34801561037757600080fd5b506101b5610386366004610f12565b610986565b34801561039757600080fd5b506101b56103a6366004610f40565b610993565b3480156103b757600080fd5b5061033f60055481565b3480156103cd57600080fd5b506101b56103dc366004610f40565b6109bd565b3480156103ed57600080fd5b5061033f60065481565b34801561040357600080fd5b5060075461026a906001600160a01b031681565b34801561042357600080fd5b5060035461026a906001600160a01b031681565b34801561044357600080fd5b506104806040518060400160405280601781526020017f416c6c6f77616e636542617365644d696e7465725f414200000000000000000081525081565b60405161018c9190611095565b34801561049957600080fd5b506101b56104a8366004610f40565b6109e7565b3480156104b957600080fd5b5061033f6104c8366004611069565b610a5d565b6104d5610aa0565b600180546001600160a01b0319166001600160a01b03831617905550565b50565b6104fe610aa0565b600880546001600160a01b0319166001600160a01b0392909216919091179055565b610528610aa0565b600061053c6002546001600160a01b031690565b6001600160a01b03168260405160006040518083038185875af1925050503d8060008114610586576040519150601f19603f3d011682016040523d82523d6000602084013e61058b565b606091505b50509050806105ad57604051631d42c86760e21b815260040160405180910390fd5b5050565b6105b9610aa0565b60009182526004602052604090912055565b600554341015610600576005546040516388f2068560e01b815260048101919091523460248201526044015b60405180910390fd5b61060b838383610afa565b600354600654604051630d4d151360e01b81526001600160a01b0386811660048301526024820192909252336044820152911690630d4d151390606401602060405180830381600087803b15801561066257600080fd5b505af1158015610676573d6000803e3d6000fd5b505050506040513d601f19601f8201168201806040525081019061069a91906110ea565b506000600a6005546106ac9190611119565b6007546040519192506000916001600160a01b039091169083908381818185875af1925050503d80600081146106fe576040519150601f19603f3d011682016040523d82523d6000602084013e610703565b606091505b50506008546005549192506000916001600160a01b039091169061072890859061113b565b604051600081818185875af1925050503d8060008114610764576040519150601f19603f3d011682016040523d82523d6000602084013e610769565b606091505b505090508180156107775750805b61079457604051631d42c86760e21b815260040160405180910390fd5b505050505050565b6107a4610aa0565b600655565b6107b1610aa0565b6107bb6000610b26565b565b60035460405163a47d29cb60e01b8152600481018390526001600160a01b039091169063a47d29cb9060240160206040518083038186803b15801561080157600080fd5b505afa158015610815573d6000803e3d6000fd5b505050506040513d601f19601f820116820180604052508101906108399190611152565b6001600160a01b0316336001600160a01b03161461087357604051630168b1a760e31b8152336004820152602481018290526044016105f7565b6000818152600460205260409020805460019091015414156108ab5760405163977a3d9560e01b8152600481018290526024016105f7565b600081815260046020526040812060010180549091906108ca9061116f565b90915550600354604051630d4d151360e01b81526001600160a01b0384811660048301526024820184905233604483015290911690630d4d151390606401602060405180830381600087803b15801561092257600080fd5b505af1158015610936573d6000803e3d6000fd5b505050506040513d601f19601f8201168201806040525081019061095a91906110ea565b505050565b600061097e8484846109796001546001600160a01b031690565b610b78565b949350505050565b61098e610aa0565b600555565b61099b610aa0565b600380546001600160a01b0319166001600160a01b0392909216919091179055565b6109c5610aa0565b600780546001600160a01b0319166001600160a01b0392909216919091179055565b6109ef610aa0565b6001600160a01b038116610a545760405162461bcd60e51b815260206004820152602660248201527f4f776e61626c653a206e6577206f776e657220697320746865207a65726f206160448201526564647265737360d01b60648201526084016105f7565b6104f381610b26565b604080516001600160a01b038416602082015290810182905230606082015260009060800160405160208183030381529060405280519060200120905092915050565b6002546001600160a01b031633146107bb5760405162461bcd60e51b815260206004820181905260248201527f4f776e61626c653a2063616c6c6572206973206e6f7420746865206f776e657260448201526064016105f7565b6000610b0784848461095f565b6000908152602081905260409020805460ff1916600117905550505050565b600280546001600160a01b038381166001600160a01b0319831681179093556040519116919082907f8be0079c531659141344cd1fd0a4f28419497f9722a3daafe3b4186f6b6457e090600090a35050565b600080610bdb610b888787610a5d565b6040517f19457468657265756d205369676e6564204d6573736167653a0a3332000000006020820152603c8101829052600090605c01604051602081830303815290604052805190602001209050919050565b90506001600160a01b038316610bf18286610c96565b6001600160a01b031614610c3d5760405162461bcd60e51b815260206004820152601360248201527221494e56414c49445f5349474e41545552452160681b60448201526064016105f7565b60008181526020819052604090205460ff1615610c8d5760405162461bcd60e51b815260206004820152600e60248201526d21414c52454144595f555345442160901b60448201526064016105f7565b95945050505050565b6000806000610ca58585610cba565b91509150610cb281610d00565b509392505050565b600080825160411415610cf15760208301516040840151606085015160001a610ce587828585610e4e565b94509450505050610cf9565b506000905060025b9250929050565b6000816004811115610d1457610d1461118a565b1415610d1d5750565b6001816004811115610d3157610d3161118a565b1415610d7f5760405162461bcd60e51b815260206004820152601860248201527f45434453413a20696e76616c6964207369676e6174757265000000000000000060448201526064016105f7565b6002816004811115610d9357610d9361118a565b1415610de15760405162461bcd60e51b815260206004820152601f60248201527f45434453413a20696e76616c6964207369676e6174757265206c656e6774680060448201526064016105f7565b6003816004811115610df557610df561118a565b14156104f35760405162461bcd60e51b815260206004820152602260248201527f45434453413a20696e76616c6964207369676e6174757265202773272076616c604482015261756560f01b60648201526084016105f7565b6000807f7fffffffffffffffffffffffffffffff5d576e7357a4501ddfe92f46681b20a0831115610e855750600090506003610f09565b6040805160008082526020820180845289905260ff881692820192909252606081018690526080810185905260019060a0016020604051602081039080840390855afa158015610ed9573d6000803e3d6000fd5b5050604051601f1901519150506001600160a01b038116610f0257600060019250925050610f09565b9150600090505b94509492505050565b600060208284031215610f2457600080fd5b5035919050565b6001600160a01b03811681146104f357600080fd5b600060208284031215610f5257600080fd5b8135610f5d81610f2b565b9392505050565b60008060408385031215610f7757600080fd5b50508035926020909101359150565b634e487b7160e01b600052604160045260246000fd5b600080600060608486031215610fb157600080fd5b8335610fbc81610f2b565b925060208401359150604084013567ffffffffffffffff80821115610fe057600080fd5b818601915086601f830112610ff457600080fd5b81358181111561100657611006610f86565b604051601f8201601f19908116603f0116810190838211818310171561102e5761102e610f86565b8160405282815289602084870101111561104757600080fd5b8260208601602083013760006020848301015280955050505050509250925092565b6000806040838503121561107c57600080fd5b823561108781610f2b565b946020939093013593505050565b600060208083528351808285015260005b818110156110c2578581018301518582016040015282016110a6565b818111156110d4576000604083870101525b50601f01601f1916929092016040019392505050565b6000602082840312156110fc57600080fd5b5051919050565b634e487b7160e01b600052601160045260246000fd5b60008261113657634e487b7160e01b600052601260045260246000fd5b500490565b60008282101561114d5761114d611103565b500390565b60006020828403121561116457600080fd5b8151610f5d81610f2b565b600060001982141561118357611183611103565b5060010190565b634e487b7160e01b600052602160045260246000fdfea2646970667358221220feb4791395730c2709ccdf12104489c7a95423e7b9c758a0dd011afbd994d25564736f6c63430008090033000000000000000000000000533d79a2669a22bafecdf1696ad6e738e4a2e07b000000000000000000000000fed74f78700bb468e824b6bfe4a2ed305a9d86ba000000000000000000000000fed74f78700bb468e824b6bfe4a2ed305a9d86ba",
        "nonce": "0xa",
        "accessList": []
      },
      "additionalContracts": []
    },
    {
      "hash": "0xe56d6bae3f823ea39835ccbe167a3bd67fe8d355afad25591caac16002203556",
      "transactionType": "CALL",
      "contractName": "AllowanceBasedMinter_AB",
      "contractAddress": "0x37ba3c65a0f9884e02c6e8f9998683B3EA525773",
      "function": "setCurProjectId(uint256)",
      "arguments": [
        "1"
      ],
      "rpc": "https://eth-goerli.alchemyapi.io/v2/zX14dLXhTQqeK4LG2pNUsk7Gcet8iPXJ",
      "transaction": {
        "type": "0x02",
        "from": "0x425944afe9cff9cb962cd2edfac25149ecbe2ef5",
        "to": "0x37ba3c65a0f9884e02c6e8f9998683b3ea525773",
        "gas": "0x10529",
        "value": "0x0",
        "data": "0x64a6cc8f0000000000000000000000000000000000000000000000000000000000000001",
        "nonce": "0xb",
        "accessList": []
      },
      "additionalContracts": []
    },
    {
      "hash": "0x7c2a79bcd0361dc079fe60999ab55df9e2868db9024508a3d6595a8795b5a438",
      "transactionType": "CALL",
      "contractName": "AllowanceBasedMinter_AB",
      "contractAddress": "0x37ba3c65a0f9884e02c6e8f9998683B3EA525773",
      "function": "setAllowancesSigner(address)",
      "arguments": [
        "0xfed74f78700bB468e824b6BfE4A2ED305a9D86ba"
      ],
      "rpc": "https://eth-goerli.alchemyapi.io/v2/zX14dLXhTQqeK4LG2pNUsk7Gcet8iPXJ",
      "transaction": {
        "type": "0x02",
        "from": "0x425944afe9cff9cb962cd2edfac25149ecbe2ef5",
        "to": "0x37ba3c65a0f9884e02c6e8f9998683b3ea525773",
        "gas": "0xf8b2",
        "value": "0x0",
        "data": "0x2073447d000000000000000000000000fed74f78700bb468e824b6bfe4a2ed305a9d86ba",
        "nonce": "0xc",
        "accessList": []
      },
      "additionalContracts": []
    },
    {
      "hash": "0xcb0f0ddbec0cf189734739d003580925f5ccb9391180d3e6a7036c004853b49c",
      "transactionType": "CALL",
      "contractName": "AllowanceBasedMinter_AB",
      "contractAddress": "0x37ba3c65a0f9884e02c6e8f9998683B3EA525773",
      "function": "transferOwnership(address)",
      "arguments": [
        "0xfed74f78700bB468e824b6BfE4A2ED305a9D86ba"
      ],
      "rpc": "https://eth-goerli.alchemyapi.io/v2/zX14dLXhTQqeK4LG2pNUsk7Gcet8iPXJ",
      "transaction": {
        "type": "0x02",
        "from": "0x425944afe9cff9cb962cd2edfac25149ecbe2ef5",
        "to": "0x37ba3c65a0f9884e02c6e8f9998683b3ea525773",
        "gas": "0x9ab3",
        "value": "0x0",
        "data": "0xf2fde38b000000000000000000000000fed74f78700bb468e824b6bfe4a2ed305a9d86ba",
        "nonce": "0xd",
        "accessList": []
      },
      "additionalContracts": []
    }
  ],
  "receipts": [
    {
      "transactionHash": "0xb26183e2d29cd30d35719468b8e16d97d83987b0bc8df65eecfb67e712a1a7de",
      "transactionIndex": "0x16",
      "blockHash": "0xc344f9248f2294bf03c362ecc01e3df1f1a33db101ff172c9a0c3ea0a9796916",
      "blockNumber": "0x87a1e6",
      "from": "0x425944Afe9cfF9cB962CD2edfAc25149eCBe2eF5",
      "to": null,
      "cumulativeGasUsed": "0x3883d4",
      "gasUsed": "0x115323",
      "contractAddress": "0x37ba3c65a0f9884e02c6e8f9998683B3EA525773",
      "logs": [
        {
          "address": "0x37ba3c65a0f9884e02c6e8f9998683B3EA525773",
          "topics": [
            "0x8be0079c531659141344cd1fd0a4f28419497f9722a3daafe3b4186f6b6457e0",
            "0x0000000000000000000000000000000000000000000000000000000000000000",
            "0x000000000000000000000000425944afe9cff9cb962cd2edfac25149ecbe2ef5"
          ],
          "data": "0x",
          "blockHash": "0xc344f9248f2294bf03c362ecc01e3df1f1a33db101ff172c9a0c3ea0a9796916",
          "blockNumber": "0x87a1e6",
          "transactionHash": "0xb26183e2d29cd30d35719468b8e16d97d83987b0bc8df65eecfb67e712a1a7de",
          "transactionIndex": "0x16",
          "logIndex": "0x28",
          "removed": false
        }
      ],
      "status": "0x1",
      "logsBloom": "0x00002000000000000000000000000000000000000000000000800000000000000000100000000000000000000000000000000000000000000000000000000000000000000000000000000000000000008001000000000000000000000000000000000000020000000000000000000800000000000000000000000200000000400000000000000000000000000000002000000000000000000000000000000000000000000000000000000000000000000000000000000000000000000000000000000000000000000000000000000000000000040000000000000000000020000000000000000000000000000000000000000000000000000000000000000000",
      "type": "0x2",
      "effectiveGasPrice": "0x21c7e32901"
    },
    {
      "transactionHash": "0xe56d6bae3f823ea39835ccbe167a3bd67fe8d355afad25591caac16002203556",
      "transactionIndex": "0x17",
      "blockHash": "0xc344f9248f2294bf03c362ecc01e3df1f1a33db101ff172c9a0c3ea0a9796916",
      "blockNumber": "0x87a1e6",
      "from": "0x425944Afe9cfF9cB962CD2edfAc25149eCBe2eF5",
      "to": "0x37ba3c65a0f9884e02c6e8f9998683B3EA525773",
      "cumulativeGasUsed": "0x393667",
      "gasUsed": "0xb293",
      "contractAddress": null,
      "logs": [],
      "status": "0x1",
      "logsBloom": "0x00000000000000000000000000000000000000000000000000000000000000000000000000000000000000000000000000000000000000000000000000000000000000000000000000000000000000000000000000000000000000000000000000000000000000000000000000000000000000000000000000000000000000000000000000000000000000000000000000000000000000000000000000000000000000000000000000000000000000000000000000000000000000000000000000000000000000000000000000000000000000000000000000000000000000000000000000000000000000000000000000000000000000000000000000000000",
      "type": "0x2",
      "effectiveGasPrice": "0x21c7e32901"
    },
    {
      "transactionHash": "0x7c2a79bcd0361dc079fe60999ab55df9e2868db9024508a3d6595a8795b5a438",
      "transactionIndex": "0x18",
      "blockHash": "0xc344f9248f2294bf03c362ecc01e3df1f1a33db101ff172c9a0c3ea0a9796916",
      "blockNumber": "0x87a1e6",
      "from": "0x425944Afe9cfF9cB962CD2edfAc25149eCBe2eF5",
      "to": "0x37ba3c65a0f9884e02c6e8f9998683B3EA525773",
      "cumulativeGasUsed": "0x39ea75",
      "gasUsed": "0xb40e",
      "contractAddress": null,
      "logs": [],
      "status": "0x1",
      "logsBloom": "0x00000000000000000000000000000000000000000000000000000000000000000000000000000000000000000000000000000000000000000000000000000000000000000000000000000000000000000000000000000000000000000000000000000000000000000000000000000000000000000000000000000000000000000000000000000000000000000000000000000000000000000000000000000000000000000000000000000000000000000000000000000000000000000000000000000000000000000000000000000000000000000000000000000000000000000000000000000000000000000000000000000000000000000000000000000000",
      "type": "0x2",
      "effectiveGasPrice": "0x21c7e32901"
    },
    {
      "transactionHash": "0xcb0f0ddbec0cf189734739d003580925f5ccb9391180d3e6a7036c004853b49c",
      "transactionIndex": "0x19",
      "blockHash": "0xc344f9248f2294bf03c362ecc01e3df1f1a33db101ff172c9a0c3ea0a9796916",
      "blockNumber": "0x87a1e6",
      "from": "0x425944Afe9cfF9cB962CD2edfAc25149eCBe2eF5",
      "to": "0x37ba3c65a0f9884e02c6e8f9998683B3EA525773",
      "cumulativeGasUsed": "0x3a5a75",
      "gasUsed": "0x7000",
      "contractAddress": null,
      "logs": [
        {
          "address": "0x37ba3c65a0f9884e02c6e8f9998683B3EA525773",
          "topics": [
            "0x8be0079c531659141344cd1fd0a4f28419497f9722a3daafe3b4186f6b6457e0",
            "0x000000000000000000000000425944afe9cff9cb962cd2edfac25149ecbe2ef5",
            "0x000000000000000000000000fed74f78700bb468e824b6bfe4a2ed305a9d86ba"
          ],
          "data": "0x",
          "blockHash": "0xc344f9248f2294bf03c362ecc01e3df1f1a33db101ff172c9a0c3ea0a9796916",
          "blockNumber": "0x87a1e6",
          "transactionHash": "0xcb0f0ddbec0cf189734739d003580925f5ccb9391180d3e6a7036c004853b49c",
          "transactionIndex": "0x19",
          "logIndex": "0x29",
          "removed": false
        }
      ],
      "status": "0x1",
      "logsBloom": "0x00002000000000000000000000000000000000000000000000800000000000000000100000000000000000000000000000000000000000000000000000000000000000000000000000000000000000008001000000000000000000000000000000000000000000000000000000000000000000000000000000000200000000400000000000000000000000000000002000000000000000000000000000000000000000000000000000200000000000000000000000000000000000000000000000000000000000000000000000000000000000040000100000000000000000000000000000000000000000020000000000000000000000000000000000000000",
      "type": "0x2",
      "effectiveGasPrice": "0x21c7e32901"
    }
  ],
  "libraries": [],
  "pending": [],
  "path": "/Users/fmc/_contracts/HodlersCollective/broadcast/DeployALMinter.s.sol/5/run-latest.json",
  "returns": {},
  "timestamp": 1682419639,
  "chain": 5,
  "multi": false,
  "commit": "e32334c"
}